{
  "contractName": "Caller",
  "abi": [
    {
      "constant": false,
      "inputs": [
        {
          "name": "_state",
          "type": "bool"
        }
      ],
      "name": "setDummyState",
      "outputs": [],
      "payable": false,
      "stateMutability": "nonpayable",
      "type": "function"
    },
    {
      "constant": false,
      "inputs": [
        {
          "name": "_dummy",
          "type": "address"
        }
      ],
      "name": "callDummyFallBack",
      "outputs": [],
      "payable": false,
      "stateMutability": "nonpayable",
      "type": "function"
    }
  ],
  "bytecode": "0x6060604052341561000f57600080fd5b6101728061001e6000396000f30060606040526004361061004c576000357c0100000000000000000000000000000000000000000000000000000000900463ffffffff1680632dd5fe1114610051578063cffe74da14610076575b600080fd5b341561005c57600080fd5b610074600480803515159060200190919050506100af565b005b341561008157600080fd5b6100ad600480803573ffffffffffffffffffffffffffffffffffffffff169060200190919050506100cb565b005b806000806101000a81548160ff02191690831515021790555050565b8073ffffffffffffffffffffffffffffffffffffffff1663abcded016040518163ffffffff167c010000000000000000000000000000000000000000000000000000000002815260040160006040518083038160008761646e5a03f1925050506000806101000a81548160ff021916908315150217905550505600a165627a7a72305820bfda21cb69a6a9faa5acaa425f9852d12b425d11cce909ac4e8acc655acae5240029",
  "source": "pragma solidity ^0.4.17;\r\nimport \"./DummyFallBack.sol\";\r\n\r\ncontract Caller {\r\n    bool dummyState;\r\n\r\n    function setDummyState(bool _state) public {\r\n        dummyState = _state;\r\n    }\r\n    \r\n    function callDummyFallBack(DummyFallBack _dummy) public /*returns (bool)*/ {\r\n        dummyState = _dummy.call(0xabcded01); // hash does not exist, just test the fallback\r\n        // should results in dummy.dummyValue == 1\r\n\r\n        // The following will not compile, as dummy's fallback is not payable.\r\n        // When someone sends ether to dummy, the txn will fail and ether is rejected.\r\n        //dummy.send(2);\r\n\r\n        //return result;\r\n    }\r\n}",
  "sourcePath": "C:\\dev\\ethereum\\solidity\\basics\\contracts\\Caller.sol",
  "compiler": {
    "name": "solc",
    "version": "0.4.18+commit.9cf6e910.Emscripten.clang"
  },
  "schemaVersion": "1.0.1",
  "updatedAt": "2017-12-08T03:20:07.106Z"
}