{
  "contractName": "DummyFallBack",
  "abi": [
    {
      "constant": true,
      "inputs": [],
      "name": "getDummyValue",
      "outputs": [
        {
          "name": "",
          "type": "uint256"
        }
      ],
      "payable": false,
      "stateMutability": "view",
      "type": "function"
    },
    {
      "payable": false,
      "stateMutability": "nonpayable",
      "type": "fallback"
    }
  ],
  "bytecode": "0x6060604052341561000f57600080fd5b60ae8061001d6000396000f300606060405260043610603f576000357c0100000000000000000000000000000000000000000000000000000000900463ffffffff1680630a0e465d146053575b3415604957600080fd5b6001600081905550005b3415605d57600080fd5b60636079565b6040518082815260200191505060405180910390f35b600080549050905600a165627a7a72305820ca9b2b246f294e24c53da6b4a38c4ff7f2943ff61b540aada9ca22409b4868420029",
  "source": "pragma solidity ^0.4.17;\r\n\r\ncontract DummyFallBack {\r\n    uint dummyValue;\r\n\r\n    /**\r\n        This function is called for all messages sent to this contract\r\n        (when there is no other function).\r\n        Sending Ether to this contract will cause an exception because\r\n        this fallback function does not have a \"payable\" modifier.\r\n     */\r\n    function() {\r\n        dummyValue = 1;\r\n    }\r\n\r\n    function getDummyValue() public view returns (uint) {\r\n        return dummyValue;\r\n    }\r\n}",
  "sourcePath": "C:\\dev\\ethereum\\solidity\\basics\\contracts\\DummyFallBack.sol",
  "compiler": {
    "name": "solc",
    "version": "0.4.18+commit.9cf6e910.Emscripten.clang"
  },
  "schemaVersion": "1.0.1",
  "updatedAt": "2017-12-08T03:20:07.105Z"
}