{
  "contractName": "OutOfGas",
  "abi": [
    {
      "constant": true,
      "inputs": [],
      "name": "getDummyValue",
      "outputs": [
        {
          "name": "",
          "type": "uint256"
        }
      ],
      "payable": false,
      "stateMutability": "view",
      "type": "function"
    },
    {
      "constant": false,
      "inputs": [
        {
          "name": "_dummy",
          "type": "uint256"
        }
      ],
      "name": "startInfiniteLoop",
      "outputs": [],
      "payable": false,
      "stateMutability": "nonpayable",
      "type": "function"
    },
    {
      "inputs": [],
      "payable": false,
      "stateMutability": "nonpayable",
      "type": "constructor"
    }
  ],
  "bytecode": "0x6060604052341561000f57600080fd5b61073f60008190555060de806100266000396000f3006060604052600436106049576000357c0100000000000000000000000000000000000000000000000000000000900463ffffffff1680630a0e465d14604e578063b478d588146074575b600080fd5b3415605857600080fd5b605e6094565b6040518082815260200191505060405180910390f35b3415607e57600080fd5b60926004808035906020019091905050609d565b005b60008054905090565b5b60011560af5780600081905550609e565b505600a165627a7a723058208ae834400a52c0fcb5fea80dfb37e95bf7e87b311136138ab77c16c3e0ca80260029",
  "source": "pragma solidity ^0.4.18;\r\n\r\n// Just a contract to simulate Ou Of Gas\r\ncontract OutOfGas {\r\n    uint dummyValue;\r\n\r\n    function OutOfGas() public {\r\n        dummyValue = 1855;\r\n    }\r\n\r\n    /// Starts an infinite loop to gtnerate Ouf Of Gas exception\r\n    function startInfiniteLoop(uint _dummy) public {\r\n        while (true) {\r\n            dummyValue = _dummy;\r\n        }\r\n    }\r\n\r\n    function getDummyValue() public view returns (uint) {\r\n        return dummyValue;\r\n    }\r\n}",
  "sourcePath": "C:\\dev\\ethereum\\solidity\\basics\\contracts\\OutOfGas.sol",
  "compiler": {
    "name": "solc",
    "version": "0.4.18+commit.9cf6e910.Emscripten.clang"
  },
  "schemaVersion": "1.0.1",
  "updatedAt": "2017-12-08T03:20:08.124Z"
}