{
  "contractName": "Reentrant",
  "abi": [
    {
      "constant": true,
      "inputs": [
        {
          "name": "",
          "type": "address"
        }
      ],
      "name": "balances",
      "outputs": [
        {
          "name": "",
          "type": "uint256"
        }
      ],
      "payable": false,
      "stateMutability": "view",
      "type": "function"
    },
    {
      "constant": false,
      "inputs": [],
      "name": "withdraw",
      "outputs": [],
      "payable": false,
      "stateMutability": "nonpayable",
      "type": "function"
    },
    {
      "constant": true,
      "inputs": [],
      "name": "getWithdrawCount",
      "outputs": [
        {
          "name": "",
          "type": "uint256"
        }
      ],
      "payable": false,
      "stateMutability": "view",
      "type": "function"
    },
    {
      "inputs": [],
      "payable": false,
      "stateMutability": "nonpayable",
      "type": "function",
      "constant": false,
      "name": "resetWithdrawCount",
      "outputs": []
    },
    {
      "payable": true,
      "stateMutability": "payable",
      "type": "function",
      "inputs": [],
      "constant": false,
      "name": "deposit",
      "outputs": []
    },
    {
      "payable": true,
      "stateMutability": "payable",
      "type": "constructor",
      "inputs": []
    },
    {
      "payable": false,
      "stateMutability": "nonpayable",
      "type": "fallback"
    }
  ],
  "bytecode": "0x606060405261001f61003f64010000000002610224176401000000009004565b61003a6100846401000000000261021a176401000000009004565b61008e565b346000803373ffffffffffffffffffffffffffffffffffffffff1673ffffffffffffffffffffffffffffffffffffffff16815260200190815260200160002081905550565b6000600181905550565b6102958061009d6000396000f30060606040526004361061006d576000357c0100000000000000000000000000000000000000000000000000000000900463ffffffff16806327e235e31461007d5780633ccfd60b146100ca57806347d04c71146100df578063be4d8da714610108578063d0e30db01461011d575b341561007857600080fd5b600080fd5b341561008857600080fd5b6100b4600480803573ffffffffffffffffffffffffffffffffffffffff16906020019091905050610127565b6040518082815260200191505060405180910390f35b34156100d557600080fd5b6100dd61013f565b005b34156100ea57600080fd5b6100f2610210565b6040518082815260200191505060405180910390f35b341561011357600080fd5b61011b61021a565b005b610125610224565b005b60006020528060005260406000206000915090505481565b6001600081548092919060010191905055503373ffffffffffffffffffffffffffffffffffffffff166000803373ffffffffffffffffffffffffffffffffffffffff1673ffffffffffffffffffffffffffffffffffffffff1681526020019081526020016000205460405160006040518083038185876187965a03f19250505015156101ca57600080fd5b60008060003373ffffffffffffffffffffffffffffffffffffffff1673ffffffffffffffffffffffffffffffffffffffff16815260200190815260200160002081905550565b6000600154905090565b6000600181905550565b346000803373ffffffffffffffffffffffffffffffffffffffff1673ffffffffffffffffffffffffffffffffffffffff168152602001908152602001600020819055505600a165627a7a723058202d6a9884f05204aa9643ac22959d9394e214573538be4d464272b02950397d2c0029",
  "source": "pragma solidity ^0.4.18;\r\n\r\ncontract Reentrant {\r\n    mapping (address => uint) public balances;\r\n    \r\n    uint withdrawCount;\r\n\r\n    function Reentrant() public payable {\r\n        deposit();\r\n        resetWithdrawCount();\r\n    }\r\n\r\n    /// Stores sender's value to balances\r\n    function deposit() public payable  {\r\n        balances[msg.sender] = msg.value;\r\n    }\r\n\r\n    function resetWithdrawCount() public {\r\n        withdrawCount = 0;\r\n    }\r\n\r\n    /// This function has a serious re-retrant bug\r\n    function withdraw() public {\r\n        withdrawCount++;\r\n\r\n        // send back to msg.sender his msg.sender's balance from balances\r\n        // NOTE: callee's fallback payable function will be invoked\r\n        //       when it receives Ether \r\n        if (!msg.sender.call.value(balances[msg.sender])()) {\r\n            revert();\r\n        }\r\n        balances[msg.sender] = 0;\r\n    }\r\n\r\n    function getWithdrawCount() public view returns (uint) {\r\n        return withdrawCount;\r\n    }\r\n\r\n    function() public {\r\n        revert();\r\n    }\r\n}",
  "sourcePath": "C:\\dev\\ethereum\\solidity\\basics\\contracts\\Reentrant.sol",
  "compiler": {
    "name": "solc",
    "version": "0.4.18+commit.9cf6e910.Emscripten.clang"
  },
  "schemaVersion": "1.0.1",
  "updatedAt": "2017-11-22T03:51:08.422Z"
}